{"abi":[{"type":"constructor","inputs":[{"name":"sadSvgImageUri","type":"string","internalType":"string"},{"name":"happySvgImageUri","type":"string","internalType":"string"}],"stateMutability":"nonpayable"},{"type":"function","name":"approve","inputs":[{"name":"to","type":"address","internalType":"address"},{"name":"tokenId","type":"uint256","internalType":"uint256"}],"outputs":[],"stateMutability":"nonpayable"},{"type":"function","name":"balanceOf","inputs":[{"name":"owner","type":"address","internalType":"address"}],"outputs":[{"name":"","type":"uint256","internalType":"uint256"}],"stateMutability":"view"},{"type":"function","name":"flipMood","inputs":[{"name":"tokenId","type":"uint256","internalType":"uint256"}],"outputs":[],"stateMutability":"nonpayable"},{"type":"function","name":"getApproved","inputs":[{"name":"tokenId","type":"uint256","internalType":"uint256"}],"outputs":[{"name":"","type":"address","internalType":"address"}],"stateMutability":"view"},{"type":"function","name":"getHappySvgImageUri","inputs":[],"outputs":[{"name":"","type":"string","internalType":"string"}],"stateMutability":"view"},{"type":"function","name":"getSadSvgImageUri","inputs":[],"outputs":[{"name":"","type":"string","internalType":"string"}],"stateMutability":"view"},{"type":"function","name":"isApprovedForAll","inputs":[{"name":"owner","type":"address","internalType":"address"},{"name":"operator","type":"address","internalType":"address"}],"outputs":[{"name":"","type":"bool","internalType":"bool"}],"stateMutability":"view"},{"type":"function","name":"mintNft","inputs":[],"outputs":[],"stateMutability":"nonpayable"},{"type":"function","name":"name","inputs":[],"outputs":[{"name":"","type":"string","internalType":"string"}],"stateMutability":"view"},{"type":"function","name":"ownerOf","inputs":[{"name":"tokenId","type":"uint256","internalType":"uint256"}],"outputs":[{"name":"","type":"address","internalType":"address"}],"stateMutability":"view"},{"type":"function","name":"safeTransferFrom","inputs":[{"name":"from","type":"address","internalType":"address"},{"name":"to","type":"address","internalType":"address"},{"name":"tokenId","type":"uint256","internalType":"uint256"}],"outputs":[],"stateMutability":"nonpayable"},{"type":"function","name":"safeTransferFrom","inputs":[{"name":"from","type":"address","internalType":"address"},{"name":"to","type":"address","internalType":"address"},{"name":"tokenId","type":"uint256","internalType":"uint256"},{"name":"data","type":"bytes","internalType":"bytes"}],"outputs":[],"stateMutability":"nonpayable"},{"type":"function","name":"setApprovalForAll","inputs":[{"name":"operator","type":"address","internalType":"address"},{"name":"approved","type":"bool","internalType":"bool"}],"outputs":[],"stateMutability":"nonpayable"},{"type":"function","name":"supportsInterface","inputs":[{"name":"interfaceId","type":"bytes4","internalType":"bytes4"}],"outputs":[{"name":"","type":"bool","internalType":"bool"}],"stateMutability":"view"},{"type":"function","name":"symbol","inputs":[],"outputs":[{"name":"","type":"string","internalType":"string"}],"stateMutability":"view"},{"type":"function","name":"tokenURI","inputs":[{"name":"tokenId","type":"uint256","internalType":"uint256"}],"outputs":[{"name":"","type":"string","internalType":"string"}],"stateMutability":"view"},{"type":"function","name":"transferFrom","inputs":[{"name":"from","type":"address","internalType":"address"},{"name":"to","type":"address","internalType":"address"},{"name":"tokenId","type":"uint256","internalType":"uint256"}],"outputs":[],"stateMutability":"nonpayable"},{"type":"event","name":"Approval","inputs":[{"name":"owner","type":"address","indexed":true,"internalType":"address"},{"name":"approved","type":"address","indexed":true,"internalType":"address"},{"name":"tokenId","type":"uint256","indexed":true,"internalType":"uint256"}],"anonymous":false},{"type":"event","name":"ApprovalForAll","inputs":[{"name":"owner","type":"address","indexed":true,"internalType":"address"},{"name":"operator","type":"address","indexed":true,"internalType":"address"},{"name":"approved","type":"bool","indexed":false,"internalType":"bool"}],"anonymous":false},{"type":"event","name":"Transfer","inputs":[{"name":"from","type":"address","indexed":true,"internalType":"address"},{"name":"to","type":"address","indexed":true,"internalType":"address"},{"name":"tokenId","type":"uint256","indexed":true,"internalType":"uint256"}],"anonymous":false},{"type":"error","name":"ERC721IncorrectOwner","inputs":[{"name":"sender","type":"address","internalType":"address"},{"name":"tokenId","type":"uint256","internalType":"uint256"},{"name":"owner","type":"address","internalType":"address"}]},{"type":"error","name":"ERC721InsufficientApproval","inputs":[{"name":"operator","type":"address","internalType":"address"},{"name":"tokenId","type":"uint256","internalType":"uint256"}]},{"type":"error","name":"ERC721InvalidApprover","inputs":[{"name":"approver","type":"address","internalType":"address"}]},{"type":"error","name":"ERC721InvalidOperator","inputs":[{"name":"operator","type":"address","internalType":"address"}]},{"type":"error","name":"ERC721InvalidOwner","inputs":[{"name":"owner","type":"address","internalType":"address"}]},{"type":"error","name":"ERC721InvalidReceiver","inputs":[{"name":"receiver","type":"address","internalType":"address"}]},{"type":"error","name":"ERC721InvalidSender","inputs":[{"name":"sender","type":"address","internalType":"address"}]},{"type":"error","name":"ERC721NonexistentToken","inputs":[{"name":"tokenId","type":"uint256","internalType":"uint256"}]},{"type":"error","name":"MoodNft_CantFlipMoodIfNotOwner","inputs":[]}],"bytecode":{"object":"0x608060405234801561001057600080fd5b5060405161173838038061173883398101604081905261002f91610169565b60405180604001604052806008815260200167135bdbd90813919560c21b8152506040518060400160405280600281526020016126a760f11b815250816000908161007a919061025b565b506001610087828261025b565b5050600060065550600761009b838261025b565b5060086100a8828261025b565b505050610319565b634e487b7160e01b600052604160045260246000fd5b600082601f8301126100d757600080fd5b81516001600160401b038111156100f0576100f06100b0565b604051601f8201601f19908116603f011681016001600160401b038111828210171561011e5761011e6100b0565b60405281815283820160200185101561013657600080fd5b60005b8281101561015557602081860181015183830182015201610139565b506000918101602001919091529392505050565b6000806040838503121561017c57600080fd5b82516001600160401b0381111561019257600080fd5b61019e858286016100c6565b602085015190935090506001600160401b038111156101bc57600080fd5b6101c8858286016100c6565b9150509250929050565b600181811c908216806101e657607f821691505b60208210810361020657634e487b7160e01b600052602260045260246000fd5b50919050565b601f82111561025657806000526020600020601f840160051c810160208510156102335750805b601f840160051c820191505b81811015610253576000815560010161023f565b50505b505050565b81516001600160401b03811115610274576102746100b0565b6102888161028284546101d2565b8461020c565b6020601f8211600181146102bc57600083156102a45750848201515b600019600385901b1c1916600184901b178455610253565b600084815260208120601f198516915b828110156102ec57878501518255602094850194600190920191016102cc565b508482101561030a5786840151600019600387901b60f8161c191681555b50505050600190811b01905550565b611410806103286000396000f3fe608060405234801561001057600080fd5b506004361061010b5760003560e01c806370a08231116100a2578063c1a147a011610071578063c1a147a01461021d578063c2229fea14610230578063c87b56dd14610238578063e985e9c51461024b578063fdcbb77a1461025e57600080fd5b806370a08231146101ce57806395d89b41146101ef578063a22cb465146101f7578063b88d4fde1461020a57600080fd5b806310919c58116100de57806310919c581461018d57806323b872dd1461019557806342842e0e146101a85780636352211e146101bb57600080fd5b806301ffc9a71461011057806306fdde0314610138578063081812fc1461014d578063095ea7b314610178575b600080fd5b61012361011e366004610e9c565b610266565b60405190151581526020015b60405180910390f35b6101406102b8565b60405161012f9190610f10565b61016061015b366004610f23565b61034a565b6040516001600160a01b03909116815260200161012f565b61018b610186366004610f58565b610373565b005b610140610382565b61018b6101a3366004610f82565b610391565b61018b6101b6366004610f82565b610421565b6101606101c9366004610f23565b610441565b6101e16101dc366004610fbf565b61044c565b60405190815260200161012f565b610140610494565b61018b610205366004610fda565b6104a3565b61018b61021836600461102c565b6104ae565b61018b61022b366004610f23565b6104c5565b61018b610569565b610140610246366004610f23565b6105a3565b610123610259366004611110565b61077c565b6101406107aa565b60006001600160e01b031982166380ac58cd60e01b148061029757506001600160e01b03198216635b5e139f60e01b145b806102b257506301ffc9a760e01b6001600160e01b03198316145b92915050565b6060600080546102c790611143565b80601f01602080910402602001604051908101604052809291908181526020018280546102f390611143565b80156103405780601f1061031557610100808354040283529160200191610340565b820191906000526020600020905b81548152906001019060200180831161032357829003601f168201915b5050505050905090565b6000610355826107b9565b506000828152600460205260409020546001600160a01b03166102b2565b61037e8282336107f2565b5050565b6060600780546102c790611143565b6001600160a01b0382166103c057604051633250574960e11b8152600060048201526024015b60405180910390fd5b60006103cd8383336107ff565b9050836001600160a01b0316816001600160a01b03161461041b576040516364283d7b60e01b81526001600160a01b03808616600483015260248201849052821660448201526064016103b7565b50505050565b61043c838383604051806020016040528060008152506104ae565b505050565b60006102b2826107b9565b60006001600160a01b038216610478576040516322718ad960e21b8152600060048201526024016103b7565b506001600160a01b031660009081526003602052604090205490565b6060600180546102c790611143565b61037e3383836108f8565b6104b9848484610391565b61041b84848484610997565b336104cf8261034a565b6001600160a01b0316146104f6576040516301b7e5cb60e31b815260040160405180910390fd5b60008181526009602052604081205460ff1660018111156105195761051961117d565b0361054357600160008281526009602052604090205460ff16600181111561043c5761043c61117d565b60008181526009602052604081205460ff16600181111561043c5761043c61117d565b50565b61057533600654610ac0565b600680546000908152600960205260408120805460ff191690558154919061059c836111a9565b9190505550565b6060806000808481526009602052604090205460ff1660018111156105ca576105ca61117d565b0361066157600880546105dc90611143565b80601f016020809104026020016040519081016040528092919081815260200182805461060890611143565b80156106555780601f1061062a57610100808354040283529160200191610655565b820191906000526020600020905b81548152906001019060200180831161063857829003601f168201915b505050505090506106ef565b6007805461066e90611143565b80601f016020809104026020016040519081016040528092919081815260200182805461069a90611143565b80156106e75780601f106106bc576101008083540402835291602001916106e7565b820191906000526020600020905b8154815290600101906020018083116106ca57829003601f168201915b505050505090505b60408051808201909152601d81527f646174613a6170706c69636174696f6e2f6a736f6e3b6261736536342c000000602082015261075461072e6102b8565b836040516020016107409291906111c2565b604051602081830303815290604052610ada565b6040516020016107659291906112c5565b604051602081830303815290604052915050919050565b6001600160a01b03918216600090815260056020908152604080832093909416825291909152205460ff1690565b6060600880546102c790611143565b6000818152600260205260408120546001600160a01b0316806102b257604051637e27328960e01b8152600481018490526024016103b7565b61043c8383836001610c3a565b6000828152600260205260408120546001600160a01b039081169083161561082c5761082c818486610d40565b6001600160a01b0381161561086a57610849600085600080610c3a565b6001600160a01b038116600090815260036020526040902080546000190190555b6001600160a01b03851615610899576001600160a01b0385166000908152600360205260409020805460010190555b60008481526002602052604080822080546001600160a01b0319166001600160a01b0389811691821790925591518793918516917fddf252ad1be2c89b69c2b068fc378daa952ba7f163c4a11628f55a4df523b3ef91a4949350505050565b6001600160a01b03821661092a57604051630b61174360e31b81526001600160a01b03831660048201526024016103b7565b6001600160a01b03838116600081815260056020908152604080832094871680845294825291829020805460ff191686151590811790915591519182527f17307eab39ab6107e8899845ad3d59bd9653f200f220920489ca2b5937696c31910160405180910390a3505050565b6001600160a01b0383163b1561041b57604051630a85bd0160e11b81526001600160a01b0384169063150b7a02906109d99033908890879087906004016112f4565b6020604051808303816000875af1925050508015610a14575060408051601f3d908101601f19168201909252610a1191810190611331565b60015b610a7d573d808015610a42576040519150601f19603f3d011682016040523d82523d6000602084013e610a47565b606091505b508051600003610a7557604051633250574960e11b81526001600160a01b03851660048201526024016103b7565b805181602001fd5b6001600160e01b03198116630a85bd0160e11b14610ab957604051633250574960e11b81526001600160a01b03851660048201526024016103b7565b5050505050565b61037e828260405180602001604052806000815250610da4565b60608151600003610af957505060408051602081019091526000815290565b600060405180606001604052806040815260200161139b6040913990506000600384516002610b28919061134e565b610b329190611361565b610b3d906004611383565b67ffffffffffffffff811115610b5557610b55611016565b6040519080825280601f01601f191660200182016040528015610b7f576020820181803683370190505b50905060018201602082018586518701602081018051600082525b82841015610bf5576003840193508351603f8160121c168701518653600186019550603f81600c1c168701518653600186019550603f8160061c168701518653600186019550603f8116870151865350600185019450610b9a565b9052505085516003900660018114610c145760028114610c2757610c2f565b603d6001830353603d6002830353610c2f565b603d60018303535b509195945050505050565b8080610c4e57506001600160a01b03821615155b15610d10576000610c5e846107b9565b90506001600160a01b03831615801590610c8a5750826001600160a01b0316816001600160a01b031614155b8015610c9d5750610c9b818461077c565b155b15610cc65760405163a9fbf51f60e01b81526001600160a01b03841660048201526024016103b7565b8115610d0e5783856001600160a01b0316826001600160a01b03167f8c5be1e5ebec7d5bd14f71427d1e84f3dd0314c0f7b2291e5b200ac8c7c3b92560405160405180910390a45b505b5050600090815260046020526040902080546001600160a01b0319166001600160a01b0392909216919091179055565b610d4b838383610dbb565b61043c576001600160a01b038316610d7957604051637e27328960e01b8152600481018290526024016103b7565b60405163177e802f60e01b81526001600160a01b0383166004820152602481018290526044016103b7565b610dae8383610e21565b61043c6000848484610997565b60006001600160a01b03831615801590610e195750826001600160a01b0316846001600160a01b03161480610df55750610df5848461077c565b80610e1957506000828152600460205260409020546001600160a01b038481169116145b949350505050565b6001600160a01b038216610e4b57604051633250574960e11b8152600060048201526024016103b7565b6000610e59838360006107ff565b90506001600160a01b0381161561043c576040516339e3563760e11b8152600060048201526024016103b7565b6001600160e01b03198116811461056657600080fd5b600060208284031215610eae57600080fd5b8135610eb981610e86565b9392505050565b60005b83811015610edb578181015183820152602001610ec3565b50506000910152565b60008151808452610efc816020860160208601610ec0565b601f01601f19169290920160200192915050565b602081526000610eb96020830184610ee4565b600060208284031215610f3557600080fd5b5035919050565b80356001600160a01b0381168114610f5357600080fd5b919050565b60008060408385031215610f6b57600080fd5b610f7483610f3c565b946020939093013593505050565b600080600060608486031215610f9757600080fd5b610fa084610f3c565b9250610fae60208501610f3c565b929592945050506040919091013590565b600060208284031215610fd157600080fd5b610eb982610f3c565b60008060408385031215610fed57600080fd5b610ff683610f3c565b91506020830135801515811461100b57600080fd5b809150509250929050565b634e487b7160e01b600052604160045260246000fd5b6000806000806080858703121561104257600080fd5b61104b85610f3c565b935061105960208601610f3c565b925060408501359150606085013567ffffffffffffffff81111561107c57600080fd5b8501601f8101871361108d57600080fd5b803567ffffffffffffffff8111156110a7576110a7611016565b604051601f8201601f19908116603f0116810167ffffffffffffffff811182821017156110d6576110d6611016565b6040528181528282016020018910156110ee57600080fd5b8160208401602083013760006020838301015280935050505092959194509250565b6000806040838503121561112357600080fd5b61112c83610f3c565b915061113a60208401610f3c565b90509250929050565b600181811c9082168061115757607f821691505b60208210810361117757634e487b7160e01b600052602260045260246000fd5b50919050565b634e487b7160e01b600052602160045260246000fd5b634e487b7160e01b600052601160045260246000fd5b6000600182016111bb576111bb611193565b5060010190565b693d913730b6b2911d101160b11b815282516000906111e881600a850160208801610ec0565b7f222c20226465736372697074696f6e223a2022416e204e465420746861742072600a918401918201527f65666c6563747320746865206f776e65722773206d6f6f642e222c2022617474602a8201526903934b13aba32b9911d160b51b604a8201527f5b7b2274726169745f74797065223a20226d6f6f64696e657373222c2022766160548201527f6c7565223a203130307d5d2c2022696d616765223a2022000000000000000000607482015283516112aa81608b840160208801610ec0565b61227d60f01b608b9290910191820152608d01949350505050565b600083516112d7818460208801610ec0565b8351908301906112eb818360208801610ec0565b01949350505050565b6001600160a01b038581168252841660208201526040810183905260806060820181905260009061132790830184610ee4565b9695505050505050565b60006020828403121561134357600080fd5b8151610eb981610e86565b808201808211156102b2576102b2611193565b60008261137e57634e487b7160e01b600052601260045260246000fd5b500490565b80820281158282048414176102b2576102b261119356fe4142434445464748494a4b4c4d4e4f505152535455565758595a6162636465666768696a6b6c6d6e6f707172737475767778797a303132333435363738392b2fa2646970667358221220d92c656a6721950dadc4e8f82061fbdc25194e85e4accd9a3526bb921074601264736f6c634300081a0033","linkReferences":{}},"methodIdentifiers":{"approve(address,uint256)":"095ea7b3","balanceOf(address)":"70a08231","flipMood(uint256)":"c1a147a0","getApproved(uint256)":"081812fc","getHappySvgImageUri()":"fdcbb77a","getSadSvgImageUri()":"10919c58","isApprovedForAll(address,address)":"e985e9c5","mintNft()":"c2229fea","name()":"06fdde03","ownerOf(uint256)":"6352211e","safeTransferFrom(address,address,uint256)":"42842e0e","safeTransferFrom(address,address,uint256,bytes)":"b88d4fde","setApprovalForAll(address,bool)":"a22cb465","supportsInterface(bytes4)":"01ffc9a7","symbol()":"95d89b41","tokenURI(uint256)":"c87b56dd","transferFrom(address,address,uint256)":"23b872dd"},"id":36}