{"abi":[{"type":"constructor","inputs":[],"stateMutability":"nonpayable"},{"type":"function","name":"approve","inputs":[{"name":"to","type":"address","internalType":"address"},{"name":"tokenId","type":"uint256","internalType":"uint256"}],"outputs":[],"stateMutability":"nonpayable"},{"type":"function","name":"balanceOf","inputs":[{"name":"owner","type":"address","internalType":"address"}],"outputs":[{"name":"","type":"uint256","internalType":"uint256"}],"stateMutability":"view"},{"type":"function","name":"getApproved","inputs":[{"name":"tokenId","type":"uint256","internalType":"uint256"}],"outputs":[{"name":"","type":"address","internalType":"address"}],"stateMutability":"view"},{"type":"function","name":"isApprovedForAll","inputs":[{"name":"owner","type":"address","internalType":"address"},{"name":"operator","type":"address","internalType":"address"}],"outputs":[{"name":"","type":"bool","internalType":"bool"}],"stateMutability":"view"},{"type":"function","name":"mintNft","inputs":[{"name":"tokenUri","type":"string","internalType":"string"}],"outputs":[],"stateMutability":"nonpayable"},{"type":"function","name":"name","inputs":[],"outputs":[{"name":"","type":"string","internalType":"string"}],"stateMutability":"view"},{"type":"function","name":"ownerOf","inputs":[{"name":"tokenId","type":"uint256","internalType":"uint256"}],"outputs":[{"name":"","type":"address","internalType":"address"}],"stateMutability":"view"},{"type":"function","name":"safeTransferFrom","inputs":[{"name":"from","type":"address","internalType":"address"},{"name":"to","type":"address","internalType":"address"},{"name":"tokenId","type":"uint256","internalType":"uint256"}],"outputs":[],"stateMutability":"nonpayable"},{"type":"function","name":"safeTransferFrom","inputs":[{"name":"from","type":"address","internalType":"address"},{"name":"to","type":"address","internalType":"address"},{"name":"tokenId","type":"uint256","internalType":"uint256"},{"name":"data","type":"bytes","internalType":"bytes"}],"outputs":[],"stateMutability":"nonpayable"},{"type":"function","name":"setApprovalForAll","inputs":[{"name":"operator","type":"address","internalType":"address"},{"name":"approved","type":"bool","internalType":"bool"}],"outputs":[],"stateMutability":"nonpayable"},{"type":"function","name":"supportsInterface","inputs":[{"name":"interfaceId","type":"bytes4","internalType":"bytes4"}],"outputs":[{"name":"","type":"bool","internalType":"bool"}],"stateMutability":"view"},{"type":"function","name":"symbol","inputs":[],"outputs":[{"name":"","type":"string","internalType":"string"}],"stateMutability":"view"},{"type":"function","name":"tokenURI","inputs":[{"name":"tokenId","type":"uint256","internalType":"uint256"}],"outputs":[{"name":"","type":"string","internalType":"string"}],"stateMutability":"view"},{"type":"function","name":"transferFrom","inputs":[{"name":"from","type":"address","internalType":"address"},{"name":"to","type":"address","internalType":"address"},{"name":"tokenId","type":"uint256","internalType":"uint256"}],"outputs":[],"stateMutability":"nonpayable"},{"type":"event","name":"Approval","inputs":[{"name":"owner","type":"address","indexed":true,"internalType":"address"},{"name":"approved","type":"address","indexed":true,"internalType":"address"},{"name":"tokenId","type":"uint256","indexed":true,"internalType":"uint256"}],"anonymous":false},{"type":"event","name":"ApprovalForAll","inputs":[{"name":"owner","type":"address","indexed":true,"internalType":"address"},{"name":"operator","type":"address","indexed":true,"internalType":"address"},{"name":"approved","type":"bool","indexed":false,"internalType":"bool"}],"anonymous":false},{"type":"event","name":"Transfer","inputs":[{"name":"from","type":"address","indexed":true,"internalType":"address"},{"name":"to","type":"address","indexed":true,"internalType":"address"},{"name":"tokenId","type":"uint256","indexed":true,"internalType":"uint256"}],"anonymous":false},{"type":"error","name":"BasicNft__TokenUriNotFound","inputs":[]},{"type":"error","name":"ERC721IncorrectOwner","inputs":[{"name":"sender","type":"address","internalType":"address"},{"name":"tokenId","type":"uint256","internalType":"uint256"},{"name":"owner","type":"address","internalType":"address"}]},{"type":"error","name":"ERC721InsufficientApproval","inputs":[{"name":"operator","type":"address","internalType":"address"},{"name":"tokenId","type":"uint256","internalType":"uint256"}]},{"type":"error","name":"ERC721InvalidApprover","inputs":[{"name":"approver","type":"address","internalType":"address"}]},{"type":"error","name":"ERC721InvalidOperator","inputs":[{"name":"operator","type":"address","internalType":"address"}]},{"type":"error","name":"ERC721InvalidOwner","inputs":[{"name":"owner","type":"address","internalType":"address"}]},{"type":"error","name":"ERC721InvalidReceiver","inputs":[{"name":"receiver","type":"address","internalType":"address"}]},{"type":"error","name":"ERC721InvalidSender","inputs":[{"name":"sender","type":"address","internalType":"address"}]},{"type":"error","name":"ERC721NonexistentToken","inputs":[{"name":"tokenId","type":"uint256","internalType":"uint256"}]}],"bytecode":{"object":"0x608060405234801561001057600080fd5b5060405180604001604052806005815260200164446f67696560d81b81525060405180604001604052806003815260200162444f4760e81b815250816000908161005a9190610113565b5060016100678282610113565b50506000600755506101d1565b634e487b7160e01b600052604160045260246000fd5b600181811c9082168061009e57607f821691505b6020821081036100be57634e487b7160e01b600052602260045260246000fd5b50919050565b601f82111561010e57806000526020600020601f840160051c810160208510156100eb5750805b601f840160051c820191505b8181101561010b57600081556001016100f7565b50505b505050565b81516001600160401b0381111561012c5761012c610074565b6101408161013a845461008a565b846100c4565b6020601f821160018114610174576000831561015c5750848201515b600019600385901b1c1916600184901b17845561010b565b600084815260208120601f198516915b828110156101a45787850151825560209485019460019092019101610184565b50848210156101c25786840151600019600387901b60f8161c191681555b50505050600190811b01905550565b610ff8806101e06000396000f3fe608060405234801561001057600080fd5b50600436106100ea5760003560e01c806370a082311161008c578063b88d4fde11610066578063b88d4fde146101e1578063c87b56dd146101f4578063da86f4a914610207578063e985e9c51461021a57600080fd5b806370a08231146101a557806395d89b41146101c6578063a22cb465146101ce57600080fd5b8063095ea7b3116100c8578063095ea7b31461015757806323b872dd1461016c57806342842e0e1461017f5780636352211e1461019257600080fd5b806301ffc9a7146100ef57806306fdde0314610117578063081812fc1461012c575b600080fd5b6101026100fd366004610b0f565b61022d565b60405190151581526020015b60405180910390f35b61011f61027f565b60405161010e9190610b79565b61013f61013a366004610b8c565b610311565b6040516001600160a01b03909116815260200161010e565b61016a610165366004610bc1565b61033a565b005b61016a61017a366004610beb565b610349565b61016a61018d366004610beb565b6103d9565b61013f6101a0366004610b8c565b6103f9565b6101b86101b3366004610c28565b610404565b60405190815260200161010e565b61011f61044c565b61016a6101dc366004610c43565b61045b565b61016a6101ef366004610d0f565b610466565b61011f610202366004610b8c565b61047d565b61016a610215366004610d8b565b61051f565b610102610228366004610dd4565b61055b565b60006001600160e01b031982166380ac58cd60e01b148061025e57506001600160e01b03198216635b5e139f60e01b145b8061027957506301ffc9a760e01b6001600160e01b03198316145b92915050565b60606000805461028e90610e07565b80601f01602080910402602001604051908101604052809291908181526020018280546102ba90610e07565b80156103075780601f106102dc57610100808354040283529160200191610307565b820191906000526020600020905b8154815290600101906020018083116102ea57829003601f168201915b5050505050905090565b600061031c82610589565b506000828152600460205260409020546001600160a01b0316610279565b6103458282336105c2565b5050565b6001600160a01b03821661037857604051633250574960e11b8152600060048201526024015b60405180910390fd5b60006103858383336105cf565b9050836001600160a01b0316816001600160a01b0316146103d3576040516364283d7b60e01b81526001600160a01b038086166004830152602482018490528216604482015260640161036f565b50505050565b6103f483838360405180602001604052806000815250610466565b505050565b600061027982610589565b60006001600160a01b038216610430576040516322718ad960e21b81526000600482015260240161036f565b506001600160a01b031660009081526003602052604090205490565b60606001805461028e90610e07565b6103453383836106c8565b610471848484610349565b6103d384848484610767565b600081815260066020526040902080546060919061049a90610e07565b80601f01602080910402602001604051908101604052809291908181526020018280546104c690610e07565b80156105135780601f106104e857610100808354040283529160200191610513565b820191906000526020600020905b8154815290600101906020018083116104f657829003601f168201915b50505050509050919050565b600754600090815260066020526040902061053a8282610e88565b5061054733600754610890565b600754610555906001610f47565b60075550565b6001600160a01b03918216600090815260056020908152604080832093909416825291909152205460ff1690565b6000818152600260205260408120546001600160a01b03168061027957604051637e27328960e01b81526004810184905260240161036f565b6103f483838360016108aa565b6000828152600260205260408120546001600160a01b03908116908316156105fc576105fc8184866109b0565b6001600160a01b0381161561063a576106196000856000806108aa565b6001600160a01b038116600090815260036020526040902080546000190190555b6001600160a01b03851615610669576001600160a01b0385166000908152600360205260409020805460010190555b60008481526002602052604080822080546001600160a01b0319166001600160a01b0389811691821790925591518793918516917fddf252ad1be2c89b69c2b068fc378daa952ba7f163c4a11628f55a4df523b3ef91a4949350505050565b6001600160a01b0382166106fa57604051630b61174360e31b81526001600160a01b038316600482015260240161036f565b6001600160a01b03838116600081815260056020908152604080832094871680845294825291829020805460ff191686151590811790915591519182527f17307eab39ab6107e8899845ad3d59bd9653f200f220920489ca2b5937696c31910160405180910390a3505050565b6001600160a01b0383163b156103d357604051630a85bd0160e11b81526001600160a01b0384169063150b7a02906107a9903390889087908790600401610f68565b6020604051808303816000875af19250505080156107e4575060408051601f3d908101601f191682019092526107e191810190610fa5565b60015b61084d573d808015610812576040519150601f19603f3d011682016040523d82523d6000602084013e610817565b606091505b50805160000361084557604051633250574960e11b81526001600160a01b038516600482015260240161036f565b805181602001fd5b6001600160e01b03198116630a85bd0160e11b1461088957604051633250574960e11b81526001600160a01b038516600482015260240161036f565b5050505050565b610345828260405180602001604052806000815250610a14565b80806108be57506001600160a01b03821615155b156109805760006108ce84610589565b90506001600160a01b038316158015906108fa5750826001600160a01b0316816001600160a01b031614155b801561090d575061090b818461055b565b155b156109365760405163a9fbf51f60e01b81526001600160a01b038416600482015260240161036f565b811561097e5783856001600160a01b0316826001600160a01b03167f8c5be1e5ebec7d5bd14f71427d1e84f3dd0314c0f7b2291e5b200ac8c7c3b92560405160405180910390a45b505b5050600090815260046020526040902080546001600160a01b0319166001600160a01b0392909216919091179055565b6109bb838383610a2b565b6103f4576001600160a01b0383166109e957604051637e27328960e01b81526004810182905260240161036f565b60405163177e802f60e01b81526001600160a01b03831660048201526024810182905260440161036f565b610a1e8383610a91565b6103f46000848484610767565b60006001600160a01b03831615801590610a895750826001600160a01b0316846001600160a01b03161480610a655750610a65848461055b565b80610a8957506000828152600460205260409020546001600160a01b038481169116145b949350505050565b6001600160a01b038216610abb57604051633250574960e11b81526000600482015260240161036f565b6000610ac9838360006105cf565b90506001600160a01b038116156103f4576040516339e3563760e11b81526000600482015260240161036f565b6001600160e01b031981168114610b0c57600080fd5b50565b600060208284031215610b2157600080fd5b8135610b2c81610af6565b9392505050565b6000815180845260005b81811015610b5957602081850181015186830182015201610b3d565b506000602082860101526020601f19601f83011685010191505092915050565b602081526000610b2c6020830184610b33565b600060208284031215610b9e57600080fd5b5035919050565b80356001600160a01b0381168114610bbc57600080fd5b919050565b60008060408385031215610bd457600080fd5b610bdd83610ba5565b946020939093013593505050565b600080600060608486031215610c0057600080fd5b610c0984610ba5565b9250610c1760208501610ba5565b929592945050506040919091013590565b600060208284031215610c3a57600080fd5b610b2c82610ba5565b60008060408385031215610c5657600080fd5b610c5f83610ba5565b915060208301358015158114610c7457600080fd5b809150509250929050565b634e487b7160e01b600052604160045260246000fd5b60008067ffffffffffffffff841115610cb057610cb0610c7f565b50604051601f19601f85018116603f0116810181811067ffffffffffffffff82111715610cdf57610cdf610c7f565b604052838152905080828401851015610cf757600080fd5b83836020830137600060208583010152509392505050565b60008060008060808587031215610d2557600080fd5b610d2e85610ba5565b9350610d3c60208601610ba5565b925060408501359150606085013567ffffffffffffffff811115610d5f57600080fd5b8501601f81018713610d7057600080fd5b610d7f87823560208401610c95565b91505092959194509250565b600060208284031215610d9d57600080fd5b813567ffffffffffffffff811115610db457600080fd5b8201601f81018413610dc557600080fd5b610a8984823560208401610c95565b60008060408385031215610de757600080fd5b610df083610ba5565b9150610dfe60208401610ba5565b90509250929050565b600181811c90821680610e1b57607f821691505b602082108103610e3b57634e487b7160e01b600052602260045260246000fd5b50919050565b601f8211156103f457806000526020600020601f840160051c81016020851015610e685750805b601f840160051c820191505b818110156108895760008155600101610e74565b815167ffffffffffffffff811115610ea257610ea2610c7f565b610eb681610eb08454610e07565b84610e41565b6020601f821160018114610eea5760008315610ed25750848201515b600019600385901b1c1916600184901b178455610889565b600084815260208120601f198516915b82811015610f1a5787850151825560209485019460019092019101610efa565b5084821015610f385786840151600019600387901b60f8161c191681555b50505050600190811b01905550565b8082018082111561027957634e487b7160e01b600052601160045260246000fd5b6001600160a01b0385811682528416602082015260408101839052608060608201819052600090610f9b90830184610b33565b9695505050505050565b600060208284031215610fb757600080fd5b8151610b2c81610af656fea2646970667358221220d9d1d5d5311f1f5e86b428be1cd15721110bb5c6cee24d66a21e7fb8a4cead7064736f6c634300081a0033","linkReferences":{}},"methodIdentifiers":{"approve(address,uint256)":"095ea7b3","balanceOf(address)":"70a08231","getApproved(uint256)":"081812fc","isApprovedForAll(address,address)":"e985e9c5","mintNft(string)":"da86f4a9","name()":"06fdde03","ownerOf(uint256)":"6352211e","safeTransferFrom(address,address,uint256)":"42842e0e","safeTransferFrom(address,address,uint256,bytes)":"b88d4fde","setApprovalForAll(address,bool)":"a22cb465","supportsInterface(bytes4)":"01ffc9a7","symbol()":"95d89b41","tokenURI(uint256)":"c87b56dd","transferFrom(address,address,uint256)":"23b872dd"},"id":35}