{"abi":[{"type":"constructor","inputs":[{"name":"sadSvgImageUri","type":"string","internalType":"string"},{"name":"happySvgImageUri","type":"string","internalType":"string"}],"stateMutability":"nonpayable"},{"type":"function","name":"approve","inputs":[{"name":"to","type":"address","internalType":"address"},{"name":"tokenId","type":"uint256","internalType":"uint256"}],"outputs":[],"stateMutability":"nonpayable"},{"type":"function","name":"balanceOf","inputs":[{"name":"owner","type":"address","internalType":"address"}],"outputs":[{"name":"","type":"uint256","internalType":"uint256"}],"stateMutability":"view"},{"type":"function","name":"flipMood","inputs":[{"name":"tokenId","type":"uint256","internalType":"uint256"}],"outputs":[],"stateMutability":"nonpayable"},{"type":"function","name":"getApproved","inputs":[{"name":"tokenId","type":"uint256","internalType":"uint256"}],"outputs":[{"name":"","type":"address","internalType":"address"}],"stateMutability":"view"},{"type":"function","name":"getHappySvgImageUri","inputs":[],"outputs":[{"name":"","type":"string","internalType":"string"}],"stateMutability":"view"},{"type":"function","name":"getSadSvgImageUri","inputs":[],"outputs":[{"name":"","type":"string","internalType":"string"}],"stateMutability":"view"},{"type":"function","name":"isApprovedForAll","inputs":[{"name":"owner","type":"address","internalType":"address"},{"name":"operator","type":"address","internalType":"address"}],"outputs":[{"name":"","type":"bool","internalType":"bool"}],"stateMutability":"view"},{"type":"function","name":"mintNft","inputs":[],"outputs":[],"stateMutability":"nonpayable"},{"type":"function","name":"name","inputs":[],"outputs":[{"name":"","type":"string","internalType":"string"}],"stateMutability":"view"},{"type":"function","name":"ownerOf","inputs":[{"name":"tokenId","type":"uint256","internalType":"uint256"}],"outputs":[{"name":"","type":"address","internalType":"address"}],"stateMutability":"view"},{"type":"function","name":"safeTransferFrom","inputs":[{"name":"from","type":"address","internalType":"address"},{"name":"to","type":"address","internalType":"address"},{"name":"tokenId","type":"uint256","internalType":"uint256"}],"outputs":[],"stateMutability":"nonpayable"},{"type":"function","name":"safeTransferFrom","inputs":[{"name":"from","type":"address","internalType":"address"},{"name":"to","type":"address","internalType":"address"},{"name":"tokenId","type":"uint256","internalType":"uint256"},{"name":"data","type":"bytes","internalType":"bytes"}],"outputs":[],"stateMutability":"nonpayable"},{"type":"function","name":"setApprovalForAll","inputs":[{"name":"operator","type":"address","internalType":"address"},{"name":"approved","type":"bool","internalType":"bool"}],"outputs":[],"stateMutability":"nonpayable"},{"type":"function","name":"supportsInterface","inputs":[{"name":"interfaceId","type":"bytes4","internalType":"bytes4"}],"outputs":[{"name":"","type":"bool","internalType":"bool"}],"stateMutability":"view"},{"type":"function","name":"symbol","inputs":[],"outputs":[{"name":"","type":"string","internalType":"string"}],"stateMutability":"view"},{"type":"function","name":"tokenURI","inputs":[{"name":"tokenId","type":"uint256","internalType":"uint256"}],"outputs":[{"name":"","type":"string","internalType":"string"}],"stateMutability":"view"},{"type":"function","name":"transferFrom","inputs":[{"name":"from","type":"address","internalType":"address"},{"name":"to","type":"address","internalType":"address"},{"name":"tokenId","type":"uint256","internalType":"uint256"}],"outputs":[],"stateMutability":"nonpayable"},{"type":"event","name":"Approval","inputs":[{"name":"owner","type":"address","indexed":true,"internalType":"address"},{"name":"approved","type":"address","indexed":true,"internalType":"address"},{"name":"tokenId","type":"uint256","indexed":true,"internalType":"uint256"}],"anonymous":false},{"type":"event","name":"ApprovalForAll","inputs":[{"name":"owner","type":"address","indexed":true,"internalType":"address"},{"name":"operator","type":"address","indexed":true,"internalType":"address"},{"name":"approved","type":"bool","indexed":false,"internalType":"bool"}],"anonymous":false},{"type":"event","name":"Transfer","inputs":[{"name":"from","type":"address","indexed":true,"internalType":"address"},{"name":"to","type":"address","indexed":true,"internalType":"address"},{"name":"tokenId","type":"uint256","indexed":true,"internalType":"uint256"}],"anonymous":false},{"type":"error","name":"ERC721IncorrectOwner","inputs":[{"name":"sender","type":"address","internalType":"address"},{"name":"tokenId","type":"uint256","internalType":"uint256"},{"name":"owner","type":"address","internalType":"address"}]},{"type":"error","name":"ERC721InsufficientApproval","inputs":[{"name":"operator","type":"address","internalType":"address"},{"name":"tokenId","type":"uint256","internalType":"uint256"}]},{"type":"error","name":"ERC721InvalidApprover","inputs":[{"name":"approver","type":"address","internalType":"address"}]},{"type":"error","name":"ERC721InvalidOperator","inputs":[{"name":"operator","type":"address","internalType":"address"}]},{"type":"error","name":"ERC721InvalidOwner","inputs":[{"name":"owner","type":"address","internalType":"address"}]},{"type":"error","name":"ERC721InvalidReceiver","inputs":[{"name":"receiver","type":"address","internalType":"address"}]},{"type":"error","name":"ERC721InvalidSender","inputs":[{"name":"sender","type":"address","internalType":"address"}]},{"type":"error","name":"ERC721NonexistentToken","inputs":[{"name":"tokenId","type":"uint256","internalType":"uint256"}]},{"type":"error","name":"MoodNft_CantFlipMoodIfNotOwner","inputs":[]}],"bytecode":{"object":"0x60806040523480156200001157600080fd5b506040516200174938038062001749833981016040819052620000349162000183565b60405180604001604052806008815260200167135bdbd90813919560c21b8152506040518060400160405280600281526020016126a760f11b81525081600090816200008191906200027c565b5060016200009082826200027c565b50506000600655506007620000a683826200027c565b506008620000b582826200027c565b50505062000348565b634e487b7160e01b600052604160045260246000fd5b600082601f830112620000e657600080fd5b81516001600160401b0380821115620001035762000103620000be565b604051601f8301601f19908116603f011681019082821181831017156200012e576200012e620000be565b816040528381526020925086838588010111156200014b57600080fd5b600091505b838210156200016f578582018301518183018401529082019062000150565b600093810190920192909252949350505050565b600080604083850312156200019757600080fd5b82516001600160401b0380821115620001af57600080fd5b620001bd86838701620000d4565b93506020850151915080821115620001d457600080fd5b50620001e385828601620000d4565b9150509250929050565b600181811c908216806200020257607f821691505b6020821081036200022357634e487b7160e01b600052602260045260246000fd5b50919050565b601f8211156200027757600081815260208120601f850160051c81016020861015620002525750805b601f850160051c820191505b8181101562000273578281556001016200025e565b5050505b505050565b81516001600160401b03811115620002985762000298620000be565b620002b081620002a98454620001ed565b8462000229565b602080601f831160018114620002e85760008415620002cf5750858301515b600019600386901b1c1916600185901b17855562000273565b600085815260208120601f198616915b828110156200031957888601518255948401946001909101908401620002f8565b5085821015620003385787850151600019600388901b60f8161c191681555b5050505050600190811b01905550565b6113f180620003586000396000f3fe608060405234801561001057600080fd5b506004361061010b5760003560e01c806370a08231116100a2578063c1a147a011610071578063c1a147a01461021d578063c2229fea14610230578063c87b56dd14610238578063e985e9c51461024b578063fdcbb77a1461025e57600080fd5b806370a08231146101ce57806395d89b41146101ef578063a22cb465146101f7578063b88d4fde1461020a57600080fd5b806310919c58116100de57806310919c581461018d57806323b872dd1461019557806342842e0e146101a85780636352211e146101bb57600080fd5b806301ffc9a71461011057806306fdde0314610138578063081812fc1461014d578063095ea7b314610178575b600080fd5b61012361011e366004610e86565b610266565b60405190151581526020015b60405180910390f35b6101406102b8565b60405161012f9190610efa565b61016061015b366004610f0d565b61034a565b6040516001600160a01b03909116815260200161012f565b61018b610186366004610f42565b610373565b005b610140610382565b61018b6101a3366004610f6c565b610391565b61018b6101b6366004610f6c565b610421565b6101606101c9366004610f0d565b610441565b6101e16101dc366004610fa8565b61044c565b60405190815260200161012f565b610140610494565b61018b610205366004610fc3565b6104a3565b61018b610218366004611015565b6104ae565b61018b61022b366004610f0d565b6104c5565b61018b610553565b610140610246366004610f0d565b61058d565b6101236102593660046110f1565b610766565b610140610794565b60006001600160e01b031982166380ac58cd60e01b148061029757506001600160e01b03198216635b5e139f60e01b145b806102b257506301ffc9a760e01b6001600160e01b03198316145b92915050565b6060600080546102c790611124565b80601f01602080910402602001604051908101604052809291908181526020018280546102f390611124565b80156103405780601f1061031557610100808354040283529160200191610340565b820191906000526020600020905b81548152906001019060200180831161032357829003601f168201915b5050505050905090565b6000610355826107a3565b506000828152600460205260409020546001600160a01b03166102b2565b61037e8282336107dc565b5050565b6060600780546102c790611124565b6001600160a01b0382166103c057604051633250574960e11b8152600060048201526024015b60405180910390fd5b60006103cd8383336107e9565b9050836001600160a01b0316816001600160a01b03161461041b576040516364283d7b60e01b81526001600160a01b03808616600483015260248201849052821660448201526064016103b7565b50505050565b61043c838383604051806020016040528060008152506104ae565b505050565b60006102b2826107a3565b60006001600160a01b038216610478576040516322718ad960e21b8152600060048201526024016103b7565b506001600160a01b031660009081526003602052604090205490565b6060600180546102c790611124565b61037e3383836108e2565b6104b9848484610391565b61041b84848484610981565b336104cf82610441565b6001600160a01b0316146104f6576040516301b7e5cb60e31b815260040160405180910390fd5b60008181526009602052604081205460ff1660018111156105195761051961115e565b03610539576000908152600960205260409020805460ff19166001179055565b6000818152600960205260409020805460ff191690555b50565b61055f33600654610aaa565b600680546000908152600960205260408120805460ff19169055815491906105868361118a565b9190505550565b6060806000808481526009602052604090205460ff1660018111156105b4576105b461115e565b0361064b57600880546105c690611124565b80601f01602080910402602001604051908101604052809291908181526020018280546105f290611124565b801561063f5780601f106106145761010080835404028352916020019161063f565b820191906000526020600020905b81548152906001019060200180831161062257829003601f168201915b505050505090506106d9565b6007805461065890611124565b80601f016020809104026020016040519081016040528092919081815260200182805461068490611124565b80156106d15780601f106106a6576101008083540402835291602001916106d1565b820191906000526020600020905b8154815290600101906020018083116106b457829003601f168201915b505050505090505b60408051808201909152601d81527f646174613a6170706c69636174696f6e2f6a736f6e3b6261736536342c000000602082015261073e6107186102b8565b8360405160200161072a9291906111a3565b604051602081830303815290604052610ac4565b60405160200161074f9291906112a6565b604051602081830303815290604052915050919050565b6001600160a01b03918216600090815260056020908152604080832093909416825291909152205460ff1690565b6060600880546102c790611124565b6000818152600260205260408120546001600160a01b0316806102b257604051637e27328960e01b8152600481018490526024016103b7565b61043c8383836001610c24565b6000828152600260205260408120546001600160a01b039081169083161561081657610816818486610d2a565b6001600160a01b0381161561085457610833600085600080610c24565b6001600160a01b038116600090815260036020526040902080546000190190555b6001600160a01b03851615610883576001600160a01b0385166000908152600360205260409020805460010190555b60008481526002602052604080822080546001600160a01b0319166001600160a01b0389811691821790925591518793918516917fddf252ad1be2c89b69c2b068fc378daa952ba7f163c4a11628f55a4df523b3ef91a4949350505050565b6001600160a01b03821661091457604051630b61174360e31b81526001600160a01b03831660048201526024016103b7565b6001600160a01b03838116600081815260056020908152604080832094871680845294825291829020805460ff191686151590811790915591519182527f17307eab39ab6107e8899845ad3d59bd9653f200f220920489ca2b5937696c31910160405180910390a3505050565b6001600160a01b0383163b1561041b57604051630a85bd0160e11b81526001600160a01b0384169063150b7a02906109c39033908890879087906004016112d5565b6020604051808303816000875af19250505080156109fe575060408051601f3d908101601f191682019092526109fb91810190611312565b60015b610a67573d808015610a2c576040519150601f19603f3d011682016040523d82523d6000602084013e610a31565b606091505b508051600003610a5f57604051633250574960e11b81526001600160a01b03851660048201526024016103b7565b805181602001fd5b6001600160e01b03198116630a85bd0160e11b14610aa357604051633250574960e11b81526001600160a01b03851660048201526024016103b7565b5050505050565b61037e828260405180602001604052806000815250610d8e565b60608151600003610ae357505060408051602081019091526000815290565b600060405180606001604052806040815260200161137c6040913990506000600384516002610b12919061132f565b610b1c9190611342565b610b27906004611364565b67ffffffffffffffff811115610b3f57610b3f610fff565b6040519080825280601f01601f191660200182016040528015610b69576020820181803683370190505b50905060018201602082018586518701602081018051600082525b82841015610bdf576003840193508351603f8160121c168701518653600186019550603f81600c1c168701518653600186019550603f8160061c168701518653600186019550603f8116870151865350600185019450610b84565b9052505085516003900660018114610bfe5760028114610c1157610c19565b603d6001830353603d6002830353610c19565b603d60018303535b509195945050505050565b8080610c3857506001600160a01b03821615155b15610cfa576000610c48846107a3565b90506001600160a01b03831615801590610c745750826001600160a01b0316816001600160a01b031614155b8015610c875750610c858184610766565b155b15610cb05760405163a9fbf51f60e01b81526001600160a01b03841660048201526024016103b7565b8115610cf85783856001600160a01b0316826001600160a01b03167f8c5be1e5ebec7d5bd14f71427d1e84f3dd0314c0f7b2291e5b200ac8c7c3b92560405160405180910390a45b505b5050600090815260046020526040902080546001600160a01b0319166001600160a01b0392909216919091179055565b610d35838383610da5565b61043c576001600160a01b038316610d6357604051637e27328960e01b8152600481018290526024016103b7565b60405163177e802f60e01b81526001600160a01b0383166004820152602481018290526044016103b7565b610d988383610e0b565b61043c6000848484610981565b60006001600160a01b03831615801590610e035750826001600160a01b0316846001600160a01b03161480610ddf5750610ddf8484610766565b80610e0357506000828152600460205260409020546001600160a01b038481169116145b949350505050565b6001600160a01b038216610e3557604051633250574960e11b8152600060048201526024016103b7565b6000610e43838360006107e9565b90506001600160a01b0381161561043c576040516339e3563760e11b8152600060048201526024016103b7565b6001600160e01b03198116811461055057600080fd5b600060208284031215610e9857600080fd5b8135610ea381610e70565b9392505050565b60005b83811015610ec5578181015183820152602001610ead565b50506000910152565b60008151808452610ee6816020860160208601610eaa565b601f01601f19169290920160200192915050565b602081526000610ea36020830184610ece565b600060208284031215610f1f57600080fd5b5035919050565b80356001600160a01b0381168114610f3d57600080fd5b919050565b60008060408385031215610f5557600080fd5b610f5e83610f26565b946020939093013593505050565b600080600060608486031215610f8157600080fd5b610f8a84610f26565b9250610f9860208501610f26565b9150604084013590509250925092565b600060208284031215610fba57600080fd5b610ea382610f26565b60008060408385031215610fd657600080fd5b610fdf83610f26565b915060208301358015158114610ff457600080fd5b809150509250929050565b634e487b7160e01b600052604160045260246000fd5b6000806000806080858703121561102b57600080fd5b61103485610f26565b935061104260208601610f26565b925060408501359150606085013567ffffffffffffffff8082111561106657600080fd5b818701915087601f83011261107a57600080fd5b81358181111561108c5761108c610fff565b604051601f8201601f19908116603f011681019083821181831017156110b4576110b4610fff565b816040528281528a60208487010111156110cd57600080fd5b82602086016020830137600060208483010152809550505050505092959194509250565b6000806040838503121561110457600080fd5b61110d83610f26565b915061111b60208401610f26565b90509250929050565b600181811c9082168061113857607f821691505b60208210810361115857634e487b7160e01b600052602260045260246000fd5b50919050565b634e487b7160e01b600052602160045260246000fd5b634e487b7160e01b600052601160045260246000fd5b60006001820161119c5761119c611174565b5060010190565b693d913730b6b2911d101160b11b815282516000906111c981600a850160208801610eaa565b7f222c20226465736372697074696f6e223a2022416e204e465420746861742072600a918401918201527f65666c6563747320746865206f776e65722773206d6f6f642e222c2022617474602a8201526903934b13aba32b9911d160b51b604a8201527f5b7b2274726169745f74797065223a20226d6f6f64696e657373222c2022766160548201527f6c7565223a203130307d5d2c2022696d616765223a20220000000000000000006074820152835161128b81608b840160208801610eaa565b61227d60f01b608b9290910191820152608d01949350505050565b600083516112b8818460208801610eaa565b8351908301906112cc818360208801610eaa565b01949350505050565b6001600160a01b038581168252841660208201526040810183905260806060820181905260009061130890830184610ece565b9695505050505050565b60006020828403121561132457600080fd5b8151610ea381610e70565b808201808211156102b2576102b2611174565b60008261135f57634e487b7160e01b600052601260045260246000fd5b500490565b80820281158282048414176102b2576102b261117456fe4142434445464748494a4b4c4d4e4f505152535455565758595a6162636465666768696a6b6c6d6e6f707172737475767778797a303132333435363738392b2fa2646970667358221220f6761ea809534be54de6d6a95ddf92465d865b135020fe762f7bec3e3e3de00764736f6c63430008140033","linkReferences":{}},"methodIdentifiers":{"approve(address,uint256)":"095ea7b3","balanceOf(address)":"70a08231","flipMood(uint256)":"c1a147a0","getApproved(uint256)":"081812fc","getHappySvgImageUri()":"fdcbb77a","getSadSvgImageUri()":"10919c58","isApprovedForAll(address,address)":"e985e9c5","mintNft()":"c2229fea","name()":"06fdde03","ownerOf(uint256)":"6352211e","safeTransferFrom(address,address,uint256)":"42842e0e","safeTransferFrom(address,address,uint256,bytes)":"b88d4fde","setApprovalForAll(address,bool)":"a22cb465","supportsInterface(bytes4)":"01ffc9a7","symbol()":"95d89b41","tokenURI(uint256)":"c87b56dd","transferFrom(address,address,uint256)":"23b872dd"},"id":33}